:020000040000fa
:080000000002040000000000f2
:020000040000fa
:10040000efd52200c0772400000188000000000022
:100410000c0007000061250001002000110007000a
:10042000000020000000e000020032000000020096
:10043000000000002e570200000000000040da001b
:100440000000fe004440a900407520000000e000cc
:100450000300320000002000a00188004440a800f2
:100460000000060091018800800078000000eb0089
:1004700015003700e280400032a0b4009101ba00bc
:10048000e280400032a0b4009102ba00e280400055
:1004900032a0b4000002eb00472bde00f507b200eb
:1004a000602ce10004003a000059eb008301e900f0
:1004b000fdff3e00040037006128e100010032002a
:1004c0000082eb00040007001101ba000200e00006
:1004d000e8ff3a00000006003159ba008301e90044
:1004e0000c0032002159ba008301e90008003200f3
:1004f0000400e00003003a00e280400032a0b400b3
:10050000f5ff370011d9ba008301e900faff3a007c
:100510008100e800e180400032a0b4000000060045
:1005200000030400000000008001eb00020037001f
:10053000817178008301e800828f5100fcff3a004e
:10054000000006000003b1000b0035009000b10070
:10055000080034008000b100070035009001b100b0
:10056000040034007000b100030035009001b100b8
:1005700001003c001000050000000500800078002c
:10058000010037000000e8001004e000fdff3a0021
:1005900001005000000006000002b1000300350019
:1005a000e005b10001003c0010000500000005005e
:1005b000808f50000e00310082814000830f500078
:1005c0000b003100020240008000eb000200370007
:1005d000436278008100e800828f5000fcff3a00ff
:1005e0000000060061f079008301e8000100370097
:1005f0008001eb00828f5100faff3a0000000600f4
:10060000881f7800020478007a0007000800400084
:100610004f047800000006000000fa00881f7800f0
:10062000000478003fb99700ea8157008000780005
:100630000030200076000700800078000000e00015
:10064000020035000040eb0000f478000100780063
:100650004f0478000080fa0000000600881f780030
:1006600000047800906a81000000e0000100320080
:100670000000010040d522000048eb00606a8100c4
:100680000000e00001003200000001006140b800fd
:10069000706a8900816a89004f04780000000600b2
:1006a000881f7800906a81000000e000010032009d
:1006b00000000100606a81000000e00001003200db
:1006c00000000100b06481000000e0000100320081
:1006d00000000100806481000000e00001003200a1
:1006e0000000010040d522001004e00026003a007e
:1006f000706a8100816a81000004eb00d2602600ec
:1007000093012000a9040700f2352f00e3c623005f
:1007100000004100818049000804e800e80f54000f
:10072000f6ff3a00706a8900816a890088c9220050
:10073000d260260093012000706a8100816a8100e6
:100740009a040700f2352f00e3c6230000004100a1
:1007500081804900706a8900816a8900009cbe001e
:1007600080d12200800f5400f1ff3a00a068810080
:10077000b168810090648900a164890011c0b30050
:1007800040d5220001487800d26026009301200065
:10079000706a8100816a810084040700f2352f00ad
:1007a000e3c623000000410081804900706a89008f
:1007b000816a890022c92200120178007f0161004c
:1007c0004211dd0083c92200030141001202be0074
:1007d00094648900a56489000089be00906481004a
:1007e000a16481004008de0000f0a1004f04780001
:1007f000000006008001eb000200370061f0790084
:100800008301e800828f5100fcff3a0000000600df
:100810006200fa00889fbe008a9fbe000004be00ee
:10082000020578008300780060f92f000f00400077
:10083000b000070088979f0099979f000000eb0089
:10084000a09f9f009a4578000b80fb000000ea0003
:10085000cf04de0050c2b30080cf5500020032004a
:1008600009047800010037000904e9000800e000ed
:100870000b0034001f909700080178008a00780070
:100880008f9197000300010090979f000000e00007
:10089000930032002f98970000004400a09f9f0013
:1008a0000905450050c2b30080cf55000400320056
:1008b0000b04e000e3ff3a002f989700890037000f
:1008c0000000eb00809f9f00f0979f00e0979f0043
:1008d000d0979f00c0979f00b0979f00c09f9f0038
:1008e0000900370060d42200008050000000400062
:1008f000a1d32200e10078004f989700010070001a
:10090000c09f9f000a05e8001a4478008800fb0099
:1009100060d422007c000700800078000000e00026
:10092000f0ff3a00a0c2b300804f54000e003a001e
:10093000bf8897000180e900b08f9f001000780009
:10094000b09f9f000000e00005003d000000ea00ad
:10095000b09f9f004f9897000020a000c09f9f006d
:100960000a05e80010003700b19f9f0003fd2f002b
:10097000f4ff2700080037003f989700840f5000cd
:10098000040032006a00b90000004100030040008a
:10099000b09f9f000a05e8001a01fb000300410018
:1009a000e90f5000f4ff3600e0c2b3009a4f100088
:1009b000040032000080eb00909f9f008a047800c2
:1009c0001c0037008a04e800a0c2b300994f100051
:1009d00007003a00bf8897000180e900b08f9f00b0
:1009e00010007800909f9f008a84e8001100370073
:1009f0000000eb00909f9f0003fd2f00f4ff2700f5
:100a0000080037001f989700840f50000400320040
:100a10006a00b9000000410003004000909f9f0061
:100a20008904e8001901fb0003004100e90f5000b0
:100a3000f4ff3600194478008800fb0060d52200de
:100a4000310007000000e00002003a000044780096
:100a5000010037008904e800a87f9f0080c6b3002a
:100a6000804f540004003a00994f14000a003a00e5
:100a70006640500006003700c0c6b300804f5400e7
:100a800005003a00994f140003003a006540400009
:100a9000a07f9f008904e8000905e800cbfb2f0038
:100aa0008f8545001901fb0060f92f000f00400001
:100ab0000084e8008b01780080007800080078004e
:100ac0001a0007000000e00005003a008b007800e3
:100ad00008007800580107000000e00059ff3d00c1
:100ae0000080eb004f05be004f04be000080fa00fe
:100af000000006000200fa00f1bf9f000108780024
:100b00000080fa0000000600040037000204e00044
:100b100001003a00000005000000e80010417800e4
:100b2000814f5100f9ff3a0000000600889fbe0087
:100b30008a1f78000004780001027800824478005f
:100b400003057800e0c6b300804f5100d2003200a8
:100b500015003c006b405000804f510024003200d3
:100b60000a003c0070405000804f51000f013200dd
:100b700065404000804f51007400320050c2b30005
:100b8000804f510020013a001c01370040c6b300dd
:100b9000804f51001b00320065404000804f5100e3
:100ba00019013a001700370030c7b300804f5100d9
:100bb000fe00320007003c0064405000804f5100ae
:100bc000620032000040e800804f51000e013a0000
:100bd000e700370050c7b300804f51005b00320080
:100be00063404000804f510007013a005700370032
:100bf0009180e900010a78007800900091717800f6
:100c000007013700a8609000c0c6b30080cf500035
:100c10000a003a009400780064805000000a7800ce
:100c20001000be004f89de00cf91de000002be0042
:100c300002037800820378001300370010c7b30066
:100c400080cf500003003200a0c6b30080cf500018
:100c500006003a009400780068805000000a78008e
:100c60003002be002003be00070037001480e900f8
:100c7000000a78001000780000027800cfa2de00a1
:100c80000503780086037800049cbe000694be002d
:100c9000a860900080c6b30080cf50000e003200e4
:100ca00020c6b30080cf500005003a000400fb00ce
:100cb000cf80de0001017800820178000a00370051
:100cc00040c7b30080cf50000300320066404000b0
:100cd00080cf500006003a0004007800cf80de008c
:100ce0000101780082017800009cbe000294be00e1
:100cf0003800be002801be00e00f5000e08f580011
:100d0000e00f5900e08f590003003d00780090008b
:100d1000d1c2b3000a003700081090000018a300e9
:100d20000300320078009000b1c2b3000400370025
:100d30000008a300530032007800900001c2b30005
:100d4000017578000000e8004d003700a8609000b1
:100d5000c0c6b30080cf500006003a00940078006f
:100d600064805000000a78001002be006033b800b2
:100d70001300370010c7b30080cf500003003200cb
:100d8000a0c6b30080cf500006003a00940078005f
:100d900068805000000a78003002be002003be00c8
:100da000070037001480e900000a7800100078007e
:100db0000002780005002000060020000700200047
:100dc000049cbe000694be00a860900080c6b300dc
:100dd00080cf50000e00320020c6b30080cf5000fc
:100de00005003a000480fb00010020000200200002
:100df000030020000a00370040c7b30080cf500036
:100e0000030032006640400080cf500006003a00e8
:100e100004007800010020000200200003002000f0
:100e2000009cbe000294be00081090000038a30091
:100e3000140032003800be002801be00e00f500050
:100e4000e08f5800e00f5900e08f59000d0032008c
:100e500080c7b30080cf54000300320080c5b300c8
:100e600080cf540007003a007800900001c3b3001f
:100e7000017578008000e80009f578000080e8003e
:100e8000700498007800900000004500600498000d
:100e90008940780042003700a8609000c0c6b300c7
:100ea00080cf5000250032000a003c006440500012
:100eb00080cf50002800320000c0e80080cf5000f2
:100ec000140032006840500080cf500022003a00e9
:100ed0000a00370040c7b30080cf50001e00320028
:100ee0006640400080cf50001b0032006940500037
:100ef00080cf500018003a00060037001480e90047
:100f0000000a780010007800485c900008487800db
:100f1000450037001480e900000a780010027800cc
:100f200068089000cf80de0001017800820178001f
:100f3000009abe000292be003b0037001480e90018
:100f4000000a78001001780068089000cf80de0069
:100f50000089be00340037001480e900000a7800e0
:100f600010007800680c9000080878002e00370008
:100f70001180e9008008780010007800cf80de0042
:100f80000101780082017800009cbe000294be003e
:100f900078009000000045006004980081c7b3000d
:100fa00008007800ee0007001f0037001480e900f9
:100fb000000a78001000780060049800580990003a
:100fc0000200e00002003d006cfd07000900370050
:100fd0008000eb006b020700800078000000e0005a
:100fe00003003200680090000080500001003700cc
:100ff00058089000100c98000b0037007800900003
:1010000002757800060037007800900080004500e7
:101010000904e00001003a0059c2b3008948780091
:101020000000e800700498000000eb004f05780015
:101030004f04be00000006000400fa00889fbe00b6
:101040008a9fbe008c1f780000047800010678009b
:1010500070089000f800900001005000880890008f
:10106000010050009808900001005000a80890006e
:1010700001005000b808900001005000c80890001e
:10108000810550000002220090bf9f000003230052
:10109000a0bf9f00081090000028a30018003a008d
:1010a0000b00e000160034008b047800090578007e
:1010b000e28f5400020036002a00200002003700b0
:1010c0000900e0000b00340058009000c8019000b7
:1010d0000a017800ee8057000300010050049800d8
:1010e0000000e00096003200680890000000450013
:1010f000600c98008a8454004240a900ebff3c0039
:10110000780190000200e0000b00340058009000cd
:10111000c80190008c007800030001005004980082
:101120000000e0008600320068089000f80090009f
:1011300001004000600c9800880c90000900e0005d
:101140001500340009057800e28f540002003600d3
:101150002a002000020037000900e0000b003400e4
:1011600058009000c80190000a017800ec805700f8
:1011700003000100500498000000e00070003200fd
:101180006808900000004500600c98008a845400b4
:101190004240a900ebff3c00180990000200e0006b
:1011a0000b003400e800900058009000c801900047
:1011b00003000100500498000000e00060003200cd
:1011c000680890009808900001004000600c9800aa
:1011d000a80c90000900e000150034000905780013
:1011e000e28f5400020036002a002000020037007f
:1011f0000900e0000b00340058009000c801900086
:101200000a017800ec8057000300010050049800a8
:101210000000e0004a00320068089000000045002d
:10122000600c98008a8454004240a900ebff3c0007
:10123000380990000200e0000d003400e800900042
:10124000180890008080400058009000c80190006d
:1012500003000100500498000000e0003800320054
:1012600068089000b808900001004000600c9800e9
:10127000c80c90000900e000150034000905780052
:10128000e28f5400020036002a00200002003700de
:101290000900e0000b00340058009000c8019000e5
:1012a0000a017800ec805700030001005004980008
:1012b0000000e000220032006808900000004500b5
:1012c000600c98008a8454004240a900ebff3c0067
:1012d000081090000028a3001b0032000b00e00063
:1012e000190034008b04780009057800e28f54005f
:1012f000020036002a002000020037000900e0004a
:101300000b00340058009000c80190000a017800da
:10131000ee80570003000100500498000000e00038
:10132000070032006808900000004500600c98003b
:101330008a8454004240a90003003400eaff3700c9
:101340000080eb00010037000000eb004f06780042
:101350004f05be004f04be000080fa0000000600ea
:101360002f03b000889fbe008a9fbe008c9fbe00e6
:101370008e1f78000007780090d22200c0b79f002f
:1013800080c5b30080cf50000800320082d1220017
:10139000c2b79f007740400080cf500003003a0062
:1013a00083002000b3b79f000a00370080c7b30056
:1013b00080cf500005003200a4002000b4b79f0089
:1013c00080c5b30080cf500002003a000501200024
:1013d000b5b79f003e04be002e05be0040c6b30058
:1013e00080cf5000030032006540400080cf5000a5
:1013f0000b003a00e00f5400e08f5c00e00f5d004e
:10140000e08f5d0006003d006000b8006011b8008c
:1014100008045000898458000a0559008b8559003a
:10142000bfb39700e88f530003003200f08f5300e2
:1014300045003a0002003700360020000100370066
:1014400046002000e00f5400e08f5c00e00f5d00dc
:10145000e08f5d0005003a005e08900081012000e9
:10146000a1b79f000000e000080032003fb19700e4
:101470000200e90008006000cfb1970063407800e7
:1014800090df9f0074012000a4b79f0086027800bf
:101490008502e900050033008b05d1000a85d300e1
:1014a0008984d3000884d300f9ff3700089fbe0069
:1014b0000a97be00afb397000700e90021fc2f0098
:1014c0008f804000008240003fb197008202e90017
:1014d00012003700afb397008703e900a7b79f005a
:1014e00000806200cfb09700615278003e00be00dd
:1014f0002e01be00860378008703e9000500330053
:101500008381d1000281d3008180d3000080d30089
:10151000f9ff3700009fbe000297be003e00be00ec
:101520002e01be00e00f5000e08f5800e00f590080
:10153000e08f5900d6003400afb397000700e000f9
:10154000e4ff3c00d2003700ae60900080c6b300dc
:1015500080cf50000b00320006003c000104e00088
:10156000080032006640500080cf500073003a00ff
:1015700004003700c0c6b30080cf50006f003a00af
:1015800031003700080178000800e00005003a004b
:101590005e08900081012000a1b79f000000e000dc
:1015a00009003200bfb19700110009000381d80083
:1015b0008000fd004fb297006440780090df9f00ec
:1015c00075012000a5b79f00bfb397001100090067
:1015d0000781d80080017800afb097000100e900d2
:1015e00022fc2f000f014100000241000c003700d7
:1015f000bfb29700110009008501d80000017800f2
:10160000afb397008703e900a7b79f000590b90023
:1016100000805100cfb097006152780082017800bd
:101620000300e000030034002fb197000200e00047
:10163000efff3c0003007800cf80de00010178005e
:10164000820178003a0037000806be00e00f54001f
:10165000e08f5c0005003a005e08900083012000e6
:10166000a3b79f000000e000090032003fb29700de
:101670006121b9000c00be003b030700cfb2970008
:101680006540780090df9f0077012000a7b79f009a
:101690003fb297006121b9000c00be00350307007e
:1016a0000006be00afb297000500e90027fc2f003e
:1016b0008f8343008083430097b79f00110037005a
:1016c0003fb197006114b9000801be000c00be00d4
:1016d000380307000005be00afb197008301e900a1
:1016e000a3b79f000801be00b0000700000056002d
:1016f0001fb29700cfb297006552780094b79f0051
:101700000a06be00e00f5600e08f5e0003003400c2
:10171000afb397000700e000e9ff3c004feade00ae
:10172000cfa2de000c00be00040178008401780026
:10173000009fbe000297be0055003700e00f540026
:10174000e08f5c00e00f5d00e08f5d0005003a0077
:101750005e08900081012000a1b79f000000e0001a
:101760000d0032003fb1970002027800cfa2de00e8
:1017700005037800860378000800be000a01be0059
:101780009c0307004fb297006440780090df9f00f1
:1017900075012000a5b79f003fb1970002027800b5
:1017a000cfa2de0005037800860378000800be00a3
:1017b0000a01be0088030700009fbe000297be001a
:1017c000afb197000300e90024fc2f000f02420094
:1017d0000006420020003700bfb2970005047800e1
:1017e000cfc4de00090578008a0578000802be0033
:1017f0000a03be005fa89700efa897007fa9970093
:101800008fb197007f030700d0b79f00e1b79f001b
:10181000f2b79f0083bf9f00afb397008703e90033
:10182000a7b79f000802be000a03be00fb03070023
:101830005faa970000005200cfb29700655678006b
:101840005fb09700efb097007fb197008fb9970016
:10185000009fbe000297be003e00be002e01be00eb
:10186000d0af9f00e1af9f00f2af9f0083b79f0012
:10187000e00f5000e08f5800e00f5900e08f590052
:1018800003003400afb097000100e000d2ff3c003d
:101890003fb19700e80f510013003a000e1090007e
:1018a0000038a30010003200afb19700f78f51004d
:1018b00006003e0024fc2f000f024200830042007d
:1018c00000c3b300914f100007003200afb2970081
:1018d0008502e900a5b79f0000c3b30027fc2f00d5
:1018e0008f83430080f37a00afb1970078811100b5
:1018f000120f98006e00900024fc2f000f0242008f
:1019000083004200bbfb07001e0990005e089000a8
:10191000800f510006003d0002005000000f9800ab
:101920000e1090000040a100001798000f00370033
:101930000000e0000d003d000e10900074006000fb
:10194000f00f500009003a007e089000fe00900061
:10195000010050008e08900001005000020050006d
:101960004240a90001003400000f98004f077800a2
:101970004f06be004f05be004f04be002f03b1004e
:10198000000006008001eb00040037008301e8003e
:1019900090cf1000040032000000e800828f510058
:1019a000faff3a000000eb0000000600020ab9004e
:1019b000001bb9000200b800810042008100430012
:1019c00000000600889fbe008a9fbe0001057800c7
:1019d0000100e0000400350008003c000000e000c9
:1019e000200032000500370060001000e080180081
:1019f00002003b0001f02c001a0037000004be007a
:101a00006011b8006b0920000982cf000200390084
:101a10000882cf000441b000694252000e0032003b
:101a200008003b0082817100610164008904d100db
:101a30000884d3008b05e8000442e800f9ff3a006f
:101a4000050037000804440089844c008b05e90038
:101a50000442e900fbff3a00190107000af0a70061
:101a600001f0a0004f05be004f04be0000000600bc
:101a7000889fbe008a9fbe008c1f78003601070039
:101a80003d01330003866c006450e1002400320005
:101a90006420e100270032006150e10022003200a2
:101aa0006120e100210032008b854200eb07b1008c
:101ab0000134b800003ab8000804420089844a00a2
:101ac000013ab8000030b8008880400009014a009f
:101ad00004003300000040008180480002014900fa
:101ae0008b05e900c909dd008301700001003200a7
:101af00013002000c814de004814dd004709de0092
:101b00001200b200c808de0008847000ec00070074
:101b100001f0a1000cf0a70001f0a0001f013700a8
:101b20006120e100210132000801be000200be0078
:101b3000f7ff37006150e100fcff3a001b0137005e
:101b40000001eb001c0137000081eb001a01370097
:101b50000001be00810107000470a70003f0a1008e
:101b60006509b100160032000d0035006828e1005b
:101b700006003500f0ff2f00f1ff27000300e00012
:101b800013003b0001002800000005000000400099
:101b9000818048008502e900fcff3a000800370018
:101ba000f88f420002003c008000eb0000000500be
:101bb0008100d1000080d3008502e800fcff3a00dc
:101bc0000300e00002003b0060001000e08018000d
:101bd0000000060003f0a200889fbe008a9fbe009e
:101be0008c1f7800dc000700e30033006450e10044
:101bf0004f0032006420e1005200320003826c008a
:101c000007003b000905d0000306d000820f5400f6
:101c10000c065d00020039000200320089017800e4
:101c2000030678008582550004003d000003fd0096
:101c30008103fd008502ea008b854200840f72005b
:101c400002003b0060001000e08018006011b80046
:101c50000005eb007a28e1000a0039000600780050
:101c6000c75ddd00f707b200878075002d003700e3
:101c7000828171000a017800610560008180d100d5
:101c80000080d3008502e900f9ff3b000604400014
:101c90008784480002003b0060041400e0841c00bc
:101ca0000988a300070032008a81710082817100d7
:101cb000610164008904d1000884d3008b05e80029
:101cc000170037000978a30013003a000b00e0006a
:101cd000130034008b05e9000804440089844c009b
:101ce0000a4474000978a3000d003a000b00e000dc
:101cf000070034008b05e9000804440089844c0087
:101d000001003a000b0020000978a300f7ff320021
:101d10000001eb0002003700828171000a017800a7
:101d2000670007000cf0a70001f0a0009b0037003f
:101d30006420e10002003a00838f6c009b003300b6
:101d40000801be000200be0094003700889fbe005c
:101d50008a9fbe008c1f78007f000700860033003a
:101d600003866c006450e1002e0032006420e10024
:101d7000330032006150e1002f0032006120e100a9
:101d80003100320085855500eb07b00009002000c6
:101d900008042000050037000804440089844c0032
:101da0000a0031000603430087834b000001530003
:101db00081815b00f8ff33000203be000800a00031
:101dc0000804440089844c00f6ff3900c639dd0060
:101dd0008301730001003200130020008904d10048
:101de0000884d3000998a300050032000800a7006a
:101df0000300a0008904d1000884d3008b05e8000b
:101e00008904d1000884d3000001eb000281d200d4
:101e10002b00070001f0a1000cf0a70001f0a000ca
:101e20005e0037006420e100600032000801be005f
:101e30000200be00f7ff37006120e1005b003200c6
:101e40006000b800f3ff37000000200001f8270011
:101e5000f0ff37000001be00c00007000470a700bb
:101e600003f0a10003f8a30013003a006509b100d4
:101e700010003200090035006928e1000200350039
:101e8000010028000000050000004000818048009b
:101e90008502e900fcff3a0000000600f88f4200ce
:101ea000050035008100d1000080d3008502e800e4
:101eb000fcff3a00000006008000eb000000050077
:101ec00081002000618055000b003d000b002000c8
:101ed00061fe2f000100e1001d00340082817100cd
:101ee000610164008904d1000884d3000000e80087
:101ef000faff3a00710020006100640003007000e6
:101f0000020060000900320061044400e0844c00db
:101f10000988a500050032008b05e8006808e1008b
:101f200002003a008904d1000884d300f20f200097
:101f30000258e10005003d00c75ddd00f907b20071
:101f40008980750008007800000006000bf8270063
:101f50008b007800000005000004be007f00070031
:101f60000003be000405be000200be007b000700a7
:101f7000844f7500000006000200be006450e100be
:101f8000050036006420e100020036000968a30065
:101f900001003a000800be000160a0004f06780072
:101fa0004f05be004f04be0000000600f0ff2f00ea
:101fb000f1ff2700f9ff3700889fbe008a9fbe000f
:101fc0008c9fbe00820578000004be0063000700fd
:101fd0000800be006420e1000700390002003a005a
:101fe000f1ff2700f0ff2f000160a0001202200087
:101ff000b2708800550037006120e10003003a000c
:102000000b00a70001f823005000370001f0a100e9
:102010000200210093642400650007000800be0050
:1020200004003500b2fd2000930c2400620007007c
:102030000004be000005eb000b00a6004f0dde0003
:1020400001f0a1000004be0032982f0023ea230013
:1020500087fe07000001eb0003f023000b00a70040
:1020600003f82300dcfe0700b9fe07000000a7000c
:102070000a00a20053fe07000b00e000030032003c
:102080000200200003f02300d2fe070001f0a200ae
:102090000006be00020020009304240074fe070026
:1020a0000801be00ccfe0700809fbe000c00be00f1
:1020b00022a22a00d3a723006dfe07004f01be0015
:1020c000c5fe07000004be0001f0a10002002000d0
:1020d00003982300360007000800be0019003500f1
:1020e0000001be0062fe07000006be00b2c5290066
:1020f000e36223005efe070022222b00f3942b00f4
:10210000b5fe07000c01be0059fe0700e27328006f
:1021100083c02300b0fe07000c01be0054fe070080
:1021200042aa2a00a3e22b00abfe07000c01be006e
:102130004ffe07000801be004dfe07000801be006b
:10214000a5fe07000a00a70001f0a2004f06be008e
:102150004f05be004f04be0000000600c70ade00a7
:10216000f107b200f50fb20008003200e1cf4200e3
:10217000020032000170a00024000500810f7000f1
:10218000010032000408050044000500810f7000c2
:1021900002003a00140005008502e900000040003a
:1021a00081c04800fcff3b000170a0002400050036
:1021b0001400200002003700040020001b0037003c
:1021c000889fbe008a9fbe00841f780062ff0700c0
:1021d0004f00780011003300f0ff2f00838f6c0058
:1021e00006003b00040565000a00a7000800370050
:1021f00009f0a6001000200008003700820f5400ec
:10220000838f5c00030039001000200001003e00b5
:102210000000200009f0a7000000ea004f05be0002
:102220004f04be000000e00000000600889fbe00d2
:102230008a9fbe008c1f78004f26dd0046ff0700f6
:102240004dff33006120e100430032006250e100a5
:1022500041003e003e0039006420e1003c003200b5
:10226000058255000f003b000402e80038003a00e8
:10227000800f5300818f5b00350034000800be00e2
:1022800003f0a10001f0a60003f0a0000cf0a700ed
:1022900051fe070041ff37000603430087834b00d0
:1022a0000c4646000005530081855b0002003300a8
:1022b0000a03be000c00a0000402e900f6ff3b0088
:1022c000850578000602430087824b0004003a002f
:1022d0006000b80009f0a70001f0a0002fff370050
:1022e0000002520081825a000704e000040033001b
:1022f0000603430087834b008b05e900faff370094
:10230000090578000604be000203be006011b80093
:10231000ebfe0700e00f5200e08f5a000700350087
:1023200002003c000c08a300040032000601be00bd
:1023300003f0a0000cf0a70027fe07000a85680044
:1023400001f0a1000af0a70001f0a00013ff370080
:102350000800be0011ff3700100220000cf0a6009c
:10236000b070880011ff3700020007000400be00b3
:10237000000006006022b800060220000000d00025
:102380008180d2000482d2008582d2000000a000a9
:102390000202520083825a0003003100020242000e
:1023a00083824a000000a1000603e900f3ff3a001f
:1023b00000000600839f68000100e00002003d006d
:1023c00060001000e08018000300e00002003d0003
:1023d00060011100e0811900e6ff07004f00e000f6
:1023e00002003b0060001000e080180000000600c2
:1023f000881f7800000478005001be004000be0035
:10240000040040008580480006014900878149009a
:10241000009cbe000294be000400e1000588e100bb
:102420000690e1000798e1000200310068004400d6
:102430001008e8004f04780000000600f487470009
:10244000889fbe008a9fbe008c9fbe008e1f7800b2
:102450000205be000004be00d4b79f00e5b79f0090
:10246000f6b79f0087bf9f000000eb00c0b79f003a
:10247000b0b79f00a0b79f0090b79f0080b79f00a4
:102480000d042000bfb097004fb09700000140003e
:102490000000e0000f003d004f08de00000071006a
:1024a000c0b79f009e00070001003d001200200001
:1024b000a100070001003d0012002000a600070057
:1024c000b1000700b60007000f004000c8ff07007a
:1024d000220037004f08de0000067100ccb79f00d5
:1024e0008f00070001003d0012002000920007004d
:1024f00001003d001200200097000700a200070025
:102500000fb297009fb297002fb39700bfb3970009
:10251000a90007000000520081805a0002015b0000
:1025200083815b0080b79f0091b79f00a2b79f0097
:10253000b3b79f000007eb009f0007000020e100f9
:1025400001a8e10002b0e10003b8e10001003100a0
:102550001e0020000e005600c0b79f004fb297002b
:102560000400e000070035001000200001002000fa
:102570006011b80008047000898470000a057100b9
:102580008b8571008d06e900beff3a000400e00073
:1025900003003d00820007000f00400094ff070089
:1025a0004fa897000000e00004003a000fb4970025
:1025b0009fb497002fb59700bfb597009400070010
:1025c0004f0778004f06be004f05be004f04be0007
:1025d0004f01b10000000600881f7800180020009d
:1025e000881f780095ff07008f87e9004f04780067
:1025f00000000600801feb0090ff07008f87e900b6
:1026000000000600889fbe008a9fbe008c1f7800d5
:102610006e00070007003d0073000700e00f5b003d
:10262000e08f5b0007003d00320007000006eb0072
:10263000040037003400070002003d002a000700b4
:102640001c00200072000700e3ff07000203be0029
:102650000002be000c00e000010032002200070072
:102660000400be000601be004f0678004f05be0004
:102670004f04be0000000600889fbe008a9fbe0077
:102680008c1f78005100070005003d005600070030
:10269000e00f5b00e08f5b0006003d0004003700a8
:1026a0001900070003003d006000b8006011b80089
:1026b0001000070056000700ceff07000203be000f
:1026c0000002be000c00e00001003200060007001e
:1026d0000400be000601be004f0678004f05be0094
:1026e0004f04be00000006006000b8006011b80092
:1026f000000037000402500085825800060359008c
:1027000087835900000006000006eb00e00f52002e
:10271000e08f5a00e00f5b00e08f5b0000000600d6
:102720000180400090b79f000001eb008fb0970040
:102730000100e000000006000200700090b79f005a
:102740000180400080b79f000001eb00ffa89700c8
:102750000100e000000006000200700080b79f004a
:10276000018040006faa9700cf20de0001007000ba
:10277000f0af9f0004024200250007004f18de0062
:102780000002720000000600e4af9f00080444004d
:1027900089844c000a054d008b854d000000060021
:1027a0003fb29700cfb297005fb39700efb39700a7
:1027b00000fe2f00000006003fb09700cfb097004a
:1027c0005fb19700efb19700000006000205be0060
:1027d0000004be00e00f5000e08f5800e00f5900e9
:1027e000e08f5900000006006000b8006011b800da
:1027f00008045000898458000a0559008b85590047
:102800001c002000e00f5200e08f5a00000006007c
:102810000800be000a01be0000000600889fbe003e
:102820008a9fbe008c1f78000205be000004be0017
:102830000006eb00e00f5000e08f5800e00f590059
:10284000e08f590007003d006000b8006011b8003b
:1028500008045000898458000a0559008b855900e6
:102860001c002000e00f5200e08f5a00e00f5b00d8
:10287000e08f5b0002003d000f0007000c00a2008b
:102880000800be000a01be00120007000203be00dd
:102890000002be000c00e00001003200060007004c
:1028a0000400be000601be004f0678004f05be00c2
:1028b0004f04be00000006006000b8006011b800c0
:1028c000040250008582580006035900878359008e
:1028d00000000600889fbe008a9fbe008c9fbe003d
:1028e0000404b8000506b8008904460060854e005f
:1028f0000606b8000a054600e0854e000706b80047
:102900008b054600040eb800890446000a854e0077
:10291000e0854d00050eb8000a0546008b854e0087
:10292000060eb8008b0546000416b8000a054600de
:102930008b854e000516b8008b054600041eb800b6
:102940008b0546000800be000a01be004f06be000f
:102950004f05be004f04be0000000600220020000c
:102960007105200060042000237420008049780055
:1029700081497800824978002626ef002746e20048
:1029800005003d0027c6bf000058a30001003a0023
:102990000300070027e6a90027a6a90000000600fb
:1029a00021042000914078008180fb00c508de00f2
:1029b00092028000ff3ffc0000ceb3004260b700ef
:1029c0009202880050052000303b8800a00a2000b9
:1029d000303b880027a6a80092028000ff3ffc0041
:1029e000c508dd0042c0bf007f40600001407000ac
:1029f00042e0b7009202880000000600889fbe00f7
:102a00008a9fbe00000478000105780070409000a5
:102a100091c5b300814f50005c003e0068409000bb
:102a2000814f500059003e0058409000e64f500042
:102a300056003e00c840900040c2b30080cf500016
:102a400052003e0038409000f24f50004f003e00d0
:102a50000004e0004d003200a840900010c3b30015
:102a600080cf500049003e000104e00047003200e2
:102a700090c9b300984f100044003e000a00e000e7
:102a80000800320042c0bf000080fb00c505de0028
:102a900091028000ff3ffc0000ceb3004260b7000f
:102aa0009102880027c6bf004500de00e1046000f7
:102ab0000904e00001003a00b9ff070027c6bf0083
:102ac0000080fb004700de00804078000001eb0042
:102ad0000004e0000400320023c6bf000080fb00b9
:102ae0004701de0027e6a900f0cf2f002626b6001a
:102af000003020002626b70027c6bf000048a300ec
:102b0000fdff3a001800780020318800180090007e
:102b1000203188002800900020318800380490007f
:102b2000283188000104e0000800320027e6a800f0
:102b30000200e0000100320023e6a8000904e000e2
:102b40000500320096ff0700030037000904e0008b
:102b500001003a0027a6a900100020000a00e000aa
:102b60000b00320092028000ff3ffc00c558dd00e0
:102b700042c0bf007f4060000140700042e0b700eb
:102b80009202880010002000010037000000eb00d6
:102b90004f05be004f04be0000000600889fbe0027
:102ba0008a9fbe0080007800f0cf2f002626b60056
:102bb0002706a80026318000273180002626b6008f
:102bc0002706a8002a3180002b3180008bcf5300cc
:102bd000f6ff3a00b64098004838de00a040980062
:102be000974098004f05be004f04be00000006004d
:102bf000889fbe008a9fbe0080007800f2cf2f0021
:102c00000001fd002626b6000001fd000030200076
:102c10002626b7002431800025318000263180002f
:102c20000001fd002626b6000001fd002626b700a3
:102c300028318000293180002a31800089cf52005c
:102c4000efff3a00954098004828de00a040980029
:102c50004830de0080487800b44098004f05be0040
:082c60004f04be000000060055
:020000040000fa
:0200000401f009
:04000000ffff0000fe
:020000040000fa
:0200000401f009
:04000400ffff0000fa
:020000040000fa
:0200000401f009
:04000800ffff0000f6
:020000040000fa
:0200000401f009
:04000c00f8ff0000f9
:020000040000fa
:0200000401f009
:040010005eff00008f
:020000040000fa
:0200000401f009
:040014007fff00006a
:020000040000fa
:0200000401f009
:04001800ffff0000e6
:020000040000fa
:0200000401f009
:04001c00dfff000002
:020000040000fa
:10000800345a0000345a0000345a0000345a0000b0
:10001800345a0000345a0000345a0000345a0000a0
:10002800345a0000ea4f0000345a0000345a0000e5
:10003800345a0000345a0000345a00007e4c000044
:10004800345a0000345a0000345a0000345a000070
:10005800345a0000345a0000345a0000345a000060
:10006800345a0000345a0000345a0000345a000050
:10007800345a0000345a0000345a0000345a000040
:10008800e0580000345a0000345a0000345a000086
:10009800345a0000345a0000345a0000345a000020
:1000a800345a0000345a0000345a0000345a000010
:1000b800345a0000345a0000345a0000345a000000
:1000c800345a0000345a0000345a0000345a0000f0
:1000d800345a0000345a0000345a0000345a0000e0
:1000e800345a0000345a0000345a0000345a0000d0
:1000f800345a0000345a0000345a0000345a0000c0
:10010800345a0000345a0000345a0000345a0000af
:10011800345a0000345a0000345a0000345a00009f
:10012800345a0000345a0000345a0000345a00008f
:10013800345a0000345a0000345a0000345a00007f
:10014800345a0000345a0000345a0000345a00006f
:10015800345a0000345a0000345a0000345a00005f
:10016800345a0000345a0000345a0000345a00004f
:10017800345a0000345a0000345a0000345a00003f
:10018800345a0000345a0000345a0000345a00002f
:10019800345a0000345a0000345a0000345a00001f
:1001a800345a0000345a0000345a0000345a00000f
:1001b800345a0000345a0000345a0000345a0000ff
:1001c800345a0000345a0000345a0000345a0000ef
:1001d800345a0000345a0000345a0000345a0000df
:1001e800345a0000345a0000345a0000345a0000cf
:0801f800345a0000345a0000e3
:020000040000fa
:10020800345a0000345a0000345a0000345a0000ae
:10021800345a0000345a0000345a0000345a00009e
:10022800345a0000ea4f0000345a0000345a0000e3
:10023800345a0000345a0000345a00007e4c000042
:10024800345a0000345a0000345a0000345a00006e
:10025800345a0000345a0000345a0000345a00005e
:10026800345a0000345a0000345a0000345a00004e
:10027800345a0000345a0000345a0000345a00003e
:10028800e0580000345a0000345a0000345a000084
:10029800345a0000345a0000345a0000345a00001e
:1002a800345a0000345a0000345a0000345a00000e
:1002b800345a0000345a0000345a0000345a0000fe
:1002c800345a0000345a0000345a0000345a0000ee
:1002d800345a0000345a0000345a0000345a0000de
:1002e800345a0000345a0000345a0000345a0000ce
:1002f800345a0000345a0000345a0000345a0000be
:10030800345a0000345a0000345a0000345a0000ad
:10031800345a0000345a0000345a0000345a00009d
:10032800345a0000345a0000345a0000345a00008d
:10033800345a0000345a0000345a0000345a00007d
:10034800345a0000345a0000345a0000345a00006d
:10035800345a0000345a0000345a0000345a00005d
:10036800345a0000345a0000345a0000345a00004d
:10037800345a0000345a0000345a0000345a00003d
:10038800345a0000345a0000345a0000345a00002d
:10039800345a0000345a0000345a0000345a00001d
:1003a800345a0000345a0000345a0000345a00000d
:1003b800345a0000345a0000345a0000345a0000fd
:1003c800345a0000345a0000345a0000345a0000ed
:1003d800345a0000345a0000345a0000345a0000dd
:1003e800345a0000345a0000345a0000345a0000cd
:0803f800345a0000345a0000e1
:020000040000fa
:102c6800000000000000000000000000000000005c
:102c780018180000181800001800000018000000bc
:102c8800362400004800000000000000000000009a
:102c9800001200007f1400007f14000024000000d0
:102ca800083c0000483e0000094900003e080000ba
:102cb80010290000120400000a150000220000007c
:102cc800000e0000103000004a4400003b000000e5
:102cd80018100000100000000000000000000000b4
:102ce800081000002020000020100000080000004c
:102cf8001008000004040000040800001000000090
:102d080000000000107c00001028000000000000f7
:102d180000180000187e00001818000000000000cd
:102d280000000000000000003030000040000000fb
:102d380000000000007e000000000000000000000d
:102d4800000000000000000000180000180000004b
:102d5800030600000c0800001830000060000000a6
:102d68003e61000061610000616100003e000000fa
:102d78001838000018180000181800003c0000005f
:102d88003e41000043040000081100007f000000dd
:102d98003e410000010e0000014100003e0000001d
:102da80060600000606800007f0800000800000004
:102db8007f610000607e0000014100003e000000cd
:102dc8003e610000607e0000616100003e0000007e
:102dd8007f460000060c000018300000300000009c
:102de8003e610000613e0000616100003e0000009d
:102df8003e610000613f000002040000380000004e
:102e0800000000001818000000180000180000005a
:102e180000000000303000000030000060000000ba
:102e280000000000182000004020000018000000ea
:102e3800000000007f0000007f000000000000008c
:102e48000000000030080000040800003000000006
:102e58003e410000020400001800000018000000b5
:102e68003e4100004d5100004e4100003e00000070
:102e78001c320000616100007f61000061000000f9
:102e88007e610000617e0000616100007e0000003c
:102e98001e61000060600000606100003e000000ec
:102ea8007c62000061610000616200007c0000003b
:102eb8007f610000607c0000606100007f0000000e
:102ec8007f610000607c000060600000600000001e
:102ed8001e61000060600000676100003e000000a5
:102ee80061610000617f0000616100006100000015
:102ef8003c18000018180000181800003c000000da
:102f08001e0c00000c0c00000c4c000038000000e7
:102f180063620000647800006462000063000000df
:102f28007060000060600000606100007f000000c9
:102f380061630000756900006161000063000000c2
:102f480063710000696900006563000061000000aa
:102f58001e21000061610000616100003e00000068
:102f68007e610000617e000060600000600000007b
:102f78001e21000061610000616200003f00000046
:102f88007e610000617e000068640000630000004c
:102f98003e410000403e0000014100007e0000006c
:102fa8007f59000018180000181800003c000000a5
:102fb8006361000061610000616100003e00000083
:102fc8006361000061310000321c0000180000003d
:102fd8006361000061690000692a000014000000b4
:102fe80063220000140800000814000063000000b9
:102ff8006322000014080000080800001c000000fc
:103008007e44000008140000182200007e00000022
:103018000078000060600000606000007800000038
:1030280040600000301800000c040000060000009a
:103038001e06000006060000060600001e0000002e
:10304800081400002200000000000000000000003a
:10305800000000000000000000000000007f0000e9
:10306800000000001c1400001c000000000000000c
:10307800007c0000023f0000414300003d000000ca
:1030880040400000407e0000414100005e0000001a
:10309800000000003e400000404000003e000000ec
:1030a800010100003f410000414100003d000000d7
:1030b800003e0000414100007e4000003e0000004c
:1030c8003c40000040780000404000004000000004
:1030d800003e0000414100003f0100003e000000aa
:1030e800404000005c6200004141000041000000d7
:1030f8000008000000180000080800001c0000007c
:1031080000040000000c0000040400000438000063
:10311800202600002830000028240000730000004a
:1031280030100000101000001010000038000000df
:1031380000000000764900004949000049000000ed
:10314800000000006c22000022220000660000003f
:10315800000000003e410000414100003e00000028
:10316800000000006e310000212100003e700000c8
:10317800000000003b440000444400003c0e0000f6
:10318800000000005e200000202000003800000041
:10319800000000001f2000001e0100003e0000008b
:1031a800103c000010100000101100000e0000007c
:1031b8000000000022220000222200001d00000062
:1031c8000000000061210000221400000800000037
:1031d8000000000063420000525400002800000074
:1031e80000000000661800001028000046000000db
:1031f8000000000063140000080800001800000028
:10320800000000003f2200000c1900003f000000f1
:103218000408000008180000080800000400000066
:103228001010000010100000101000001010000016
:1032380010080000080c000008080000100000003a
:1032480000000000304900000600000000000000f7
:10325800ff810000818100008181000081ff000062
:103268000000000000000000000000000000000056
:10327800c00300002004000010080000081000002f
:10328800100800002004000020040000300c00009a
:103298000810000004200000f81f000000000000d3
:1032a800ffff0000ffff0000ffff0000ffff00001e
:1032b800ffff00003ffc00001ff800000ff00000b7
:1032c8001ff800003ffc00003ffc00003ffc00002e
:1032d8000ff0000007e00000ffff0000ffff000004
:1032e8000000000098190000642600000420000077
:1032f800042000000810000010080000100800005a
:103308001008000010080000100800000810000055
:103318000420000002400000fc3f00000000000004
:10332800ffff0000ffff000067e6000007e0000065
:1033380007e000000ff000001ff800001ff8000071
:103348001ff800001ff800001ff800000ff0000031
:1033580007e0000003c00000ffff0000ffff0000bf
:103368008000000040030000400400002008000026
:1033780050100000080800000410000004080000b5
:1033880068140000780c00002008000010080000f5
:103398000810000004200000f81f000000000000d2
:1033a800ffff00007fff00007ffc00003ff80000e7
:1033b8005ff000000ff8000007f0000007f80000b9
:1033c8006ff400007ffc00003ff800001ff80000c9
:1033d8000ff0000007e00000ffff0000ffff000003
:1033e800800100004002000020040000700e000070
:1033f8004812000008100000100800002004000017
:103408002004000020040000200400001008000030
:10341800100800000810000004200000f81f000039
:10342800ffff00007ffe00003ffc00007ffe000061
:103438004ff200000ff000001ff800003ffc0000f2
:103448003ffc00003ffc00003ffc00001ff80000ac
:103458001ff800000ff0000007e00000ffff000069
:10346800000000008001000040020000a0040000ed
:1034780010090000081200001008000020040000d5
:1034880020040000200400002004000010080000b0
:10349800100800000810000004200000f81f0000b9
:1034a800ffff00007ffe0000bffc00001ff90000c6
:1034b8000ff200001ff800003ffc00003ffc000076
:1034c8003ffc00003ffc00003ffc00001ff800002c
:1034d8001ff800000ff0000007e00000ffff0000e9
:1034e800000000008001000040020000300c0000d5
:1034f8008811000088110000100800002004000056
:10350800200400002004000020040000100800002f
:10351800100800000810000004200000f81f000038
:10352800ffff0000ffff00007ffe00003ffc0000df
:103538008ff100008ff100001ff800003ffc000031
:103548003ffc00003ffc00003ffc00001ff80000ab
:103558001ff800000ff0000007e00000ffff000068
:103568000000000000000000000000000000000053
:103578000000000000000000000000000000000043
:103588000000000000000000000000000000000033
:103598000000000000000000000000000000000023
:1035a800ffff0000ffff0000ffff0000ffff00001b
:1035b800ffff0000ffff0000ffff0000ffff00000b
:1035c800ffff0000ffff0000ffff0000ffff0000fb
:1035d800ffff0000ffff0000ffff0000ffff0000eb
:1035e8004d4f000056450000533a0000007000009f
:1035f80069630000436800006573000073200000e1
:10360800763100002e3000000062000079200000b2
:1036180041720000746800007572000020420000ca
:10362800656e0000656d0000616e00006e000000b0
:103638004a7500006c200000203300002032000092
:103648003031000031000000507200006f6d000042
:103658006f740000696f00006e3a000000510000ae
:1036680075650000656e0000005200006f6f000075
:103678006b00000042690000736800006f70000072
:10368800004b00006e6900006768000074000000cd
:10369800476100006d65000020540000797000004b
:1036a800653a00000050000076500000005000000d
:1036b80076430000004300007650000000430000fd
:1036c8007643000000470000616d0000652000009f
:1036d80044650000657000003a0000004561000084
:1036e800737900002020000020200000283300000b
:1036f800290000004d65000064690000756d000038
:103708002020000028340000290000004861000043
:1037180072640000202000002020000028350000ee
:103728002900000053750000696300006964000007
:103738006520000028360000290000004f760000b0
:1037480065720000666c00006f77000020210000a1
:1037580000000000122100001f0e0000eedf000034
:10376800e1f200001011000001f10000f0ef00008c
:10377800ff0f000010010000f0ff000011f1000031
:10378800ef0f00001011000001f10000f0ef000041
:10379800ff0f0000080900000a0b00000c0d0000d4
:1037a8000e0f0000000100000203000004050000e5
:1037b80006070000181900001a1b00001c1d000055
:1037c8001e1f000010110000121300001415000045
:1037d80016170000000000000000000000000000b4
:1037e80000000000060200000507000003050000b5
:1037f80002060000000000000000000000000000b9
:1038080000000000010100000101000001010000aa
:10381800010100000000000000000000000000009e
:1038280000000000707100007273000074750000e1
:103838007677000000000000000000000000000093
:103848000000000060610000626300006465000021
:1038580066670000585900005a5b00005c5d000074
:103868005e5f0000464200004547000043450000f7
:1038780042460000484900004a4b00004c4d0000f9
:103888004e4f00004141000041410000414100000d
:103898004141000000000000640000002c0100000d
:1038a800fc3f0000000000005e010000f401000081
:1038b800b60300000b0c00000a0d0000090e000002
:1038c800080f00001b1c00001a1d0000191e000034
:1038d800181f00000088000000840000828000009b
:1038e800818b0000008900008785000083090000a3
:1038f80060000000000000001200000000710000dd
:1039080031000000000000007a73000061770000b9
:103918003200000000630000786400006534000095
:10392800330000000020000076660000747200007a
:1039380035000000006e0000626800006779000032
:1039480036000000000000006d6a000075370000b6
:1039580038000000002c00006b6900006f30000088
:1039680039000000002e00002f6c00003b700000a2
:103978002d00000000000000270000005b3d000053
:1039880000000000581200000d5d0000005c0000ff
:10399800000000000000000000000000000000001f
:1039a8000800000000d1000000d40000d70000008b
:1039b80000000000002e0000d2d50000d6d800007c
:1039c8001b0000008a2b0000d32d00002ad900001c
:1039d8000000000043680000656300006b6d000094
:1039e8006174000065000000434800004543000082
:1039f8004b4d000041540000450000005374000086
:103a0800616c0000656d00006174000065000000d5
:103a180053540000414c0000454d00004154000043
:103a2800450000000706000005020000204f0000c6
:103a380056450000524600004c4f00005757000002
:103a48005757000057000000000000000000000069
:103a5800e03e000000000000e097000000000000c9
:103a680080f4000000000000a03700000100000002
:103a7800a00600000b00000080ce0000110000002e
:103a8800e032000012000000e00100001c0000000d
:103a9800fb00000064010000720100000c0100003e
:103aa8003c2700001f1b0000910100003c2700007c
:103ab8001e0000000d0a000020700000696300006d
:103ac8004368000065730000732000007631000031
:103ad8002e300000200d00000a4a0000756c00001e
:103ae8002020000033200000323000003131000077
:103af8000d0a000000000000256400002e250000cb
:083b08006460000043000000ae
:020000040000fa
:103b10000800fa00000f78002147980000032800f1
:103b2000200888000080eb00100888008460a9004d
:103b30002e4090000004e0000901320086cdbf0055
:103b40007047b20086edb700506c800030079800d7
:103b50003e009000e20f5000580032003e009000fe
:103b6000e30f5000110032003e009000e10f5000c2
:103b7000db0032002e409000f20207000000e0005f
:103b80000300320010002000506c8800070037004e
:103b90002e4090000080fb006af207000000e00069
:103ba000ef00320030002000506c88002e40900062
:103bb000fb4f500007003a000000eb00506c8800fb
:103bc000e0c3b300ecedb7000040eb00ededb70053
:103bd000e30037002e409000ed4f500034003a00d3
:103be000d1de20009140780030c7b30080cf500074
:103bf0000e003a00c0de200060f20700ee0f500019
:103c00000a003a0000000000e0de2000d51707009f
:103c10000000eb00506c8800e0c3b300ecedb7008f
:103c20000040eb00ededb700cd003700d0de200006
:103c30009e007800260407009e0078001181fb009a
:103c4000114090000080fb004800dd000200700081
:103c500080017800214090000081fb0031409000fd
:103c60000080fb004800dd0002007000800078004a
:103c7000030078009f1207000000e000b800320047
:103c8000e0c3b300ecedb7000040eb00ededb70092
:103c900086cdbf007047b20086edb7000000eb0094
:103ca000506c88001000200020079800ae003700fc
:103cb0002e409000a2010700a90037002e4090007e
:103cc000fb4f500003003a0010002000506c8800a9
:103cd000a30037002e409000ed4f5000040032004a
:103ce000ae40900050cdb30080cf500009003a00a4
:103cf00086cdbf008080fb0088cdbf000000fb00a8
:103d0000808f500003003a0010002000506c8800a3
:103d1000930037002e409000ed4f50000400320019
:103d2000ae40900050cdb30080cf500064003a0008
:103d300088cdbf00804078001e00780001487800e0
:103d400061d82000914078001e0078001140980052
:103d500086cdbf008080fb0020d020000080400086
:103d6000104078000004e0000900320086cdbf005a
:103d70008080fb0020d020000080400010407800b0
:103d8000804078001e007800214098000300370032
:103d90009e0078000040eb00a04098009e00780054
:103da0001181fb00114090000080fb004800dd0005
:103db0000200700080017800214090000081fb002b
:103dc000314090000080fb004800dd0002007000e0
:103dd0008000780003007800db1107006f4060006e
:103de0001e017800ef416000b240900000cfb300a8
:103df00000c0600003407000304198009e007800d1
:103e00001181fb00114090000080fb004800dd00a4
:103e10000200700080017800214090000081fb00ca
:103e2000314090000080fb004800dd00020070007f
:103e30008000780003007800e20107006f40600016
:103e40009e0078004401dd00314090006f4060002a
:103e500002407000b04098009e0078001181fb0085
:103e6000114090000080fb004800dd00020070005f
:103e700080017800214090000081fb0031409000db
:103e80000080fb004800dd00020070008000780028
:103e900003007800171207000000e0003000320035
:103ea00086cdbf007047b20086edb7000000eb0082
:103eb000506c880010002000200798002a0037006e
:103ec0002e4090000080fb009ef107000000e00003
:103ed0000300320030002000506c880020003700c2
:103ee0002e409000340207000000e0001c003a0061
:103ef0002e4090000080fb0092f107000000e000df
:103f00000300320030002000506c8800140037009d
:103f10002e409000fb4f500003003a000000eb00e1
:103f2000506c88000e0037002e409000ed4f50007e
:103f300004003200ae40900050cdb30080cf50005e
:103f400007003a007e0107000000e0000400320094
:103f500086cdbf0088edb70020002000506c88009f
:103f60000000eb00200798002e0090000080fa006f
:103f7000000006000800fa00000f780021479800b2
:103f80001e00780010007800e30060001e0078003a
:103f9000010878002e4090000080fb003007980058
:103fa000200d2000be009000808f50001c003200c9
:103fb000200d2000be009000808f500004003c00c7
:103fc0003e009000ed0f500020003200220037002c
:103fd000500d2000be009000808f50001b0032006a
:103fe000800d2000be009000808f50000100320044
:103ff000190037001e007800100078008000e900ea
:104000001e007800010878001e007800100078007b
:10401000e30060001e007800010878000e00370001
:104020001e007800100078008000e8001e00780074
:10403000010878001e00780010007800e30060009e
:104040001e007800010878000300370010002000ef
:104050002007980007003700b21507001e007800ff
:104060001000780016090700b51507008000eb0066
:10407000210798002e0090000080fa000000060042
:104080000800fa00000f7800214798001e00780011
:1040900010407800e34060001e007800014878007e
:1040a0002e4090000080fb0030079800200d20007b
:1040b000be009000808f50001c003200200d2000b8
:1040c000be009000808f500004003c003e00900035
:1040d000ed0f50002000320027003700500d200067
:1040e000be009000808f50001b003200800d200029
:1040f000be009000808f5000010032001e0037008b
:104100001e007800104078008040e9001e00780012
:10411000014878001e00780010407800e3406000fd
:104120001e00780001487800130037001e00780058
:10413000104078008040e8001e00780001487800b8
:104140001e00780010407800e34060001e007800f8
:1041500001487800080037001e0078001040780001
:10416000e34040001e007800014878001000200065
:1041700020079800080037006a1507001e00780025
:10418000104078000000fb000d0907006c150700c7
:104190008000eb00210798002e0090000080fa00bc
:1041a000000006000e00fa006a01470000097800ce
:1041b00011019800616e80006a004700104178008c
:1041c000c208dd00c0d8200000804000024878000e
:1041d000616e80006a00470010419000c208dd0057
:1041e000d0d820000080400002487800616e800036
:1041f0006a004700204190004208dd008080e8000e
:10420000c0d820000080400002487800616e800025
:104210006a004700304190004208dd008080e800dd
:10422000d0d820000080400002487800606e8000f6
:104230000000e80002012000110009000200d8007f
:104240008000fd00606e8800616e8000706e8000ee
:10425000808f500007003a00706e80000000e80078
:1042600002012000110009000200d8008000fd00ba
:10427000706e88006a00470090007800100190007e
:104280000100780082007800260307006a004700da
:1042900090007800900190000e01780001007800f5
:1042a00083007800130207000e0078005c1c0700f2
:1042b0000080fa00000006000400fa00000f7800f9
:1042c0001e007800100798001e009000e40f5000b8
:1042d000110032001e009000e40f500004003c006a
:1042e0001e009000e30f500008003200120037005b
:1042f0001e009000e50f50000a0032001e009000e2
:10430000e60f50000a0032000b003700600020006a
:10431000561b07000800370020002000531b070031
:104320000500370010002000501b07000200370076
:10433000300020004d1b07000080fa00000006003e
:104340000400fa0020479800c0de20008bf0070030
:10435000004f78002e409000e84f50000a003a00cd
:1043600010c0b3009e4f1000150036001e80fb00e9
:104370008000e900c0de2000808040000040eb00ab
:10438000804878000e0037002e4090000000fb00af
:1043900081f007000000e000090032001e80fb00f1
:1043a0000000e800ef0f500005003e001e80fb00fb
:1043b000c1de200001004000ae40900001487800be
:1043c0000080fa00000006000400fa00d51407007f
:1043d0005707070078070700a1090700506c800005
:1043e000100798001e009000e20f500007003200f6
:1043f0001e009000e30f5000130032001e009000da
:10440000e10f50000d00320023003700000880004b
:10441000f2ff2700110009000280d8008000fd0093
:1044200080007800f0ff2300808f500003003600ea
:1044300088cdbf008040eb00be08070086cdbf00de
:10444000900907001400370012c0b3008040eb0051
:10445000c0de200068170700c0de200047f007001c
:104460004300dd00004f7800000880000000e000fd
:1044700005003d009e40780012c0b300f0c5b300b7
:104480007b170700040037009e40780012c0b3007d
:1044900000c2b30076170700a91407000080fa00d5
:1044a000000006000000fa000000eb00ef1a070011
:1044b0009c1407001e0707003f070700e0ce2900f5
:1044c000d71b070012c0b30081c1b30080cf290001
:1044d000491707009a1407000080fa000000060040
:1044e0000000fa008f1407001107070032070700c9
:1044f00020d02900ca1b070012c0b30081c1b3003d
:10450000c0d029003c1707008d1407000080fa0076
:10451000000006000000fa0095160700ed4f50005d
:1045200005003200921607008040780050cdb3009d
:1045300080cf5000f8ff3a000080fa00000006002b
:104540000400fa0086cdbf008080fb0020d0200050
:1045500000804000104078000004e00014003200a9
:1045600086cdbf008080fb0020d02000008040006e
:10457000904078000000eb001007980000c4b300e2
:1045800080cf500002003400110020001107980075
:1045900082cdbf000000fb009e009000808f500085
:1045a00003003a0010002000000f780002003700de
:1045b0008000eb00010f78001e0078000080fa00f8
:1045c000000006000c00fa006401470000097800b2
:1045d0001101980064004700104078000080fb0043
:1045e000bf0f070067006000e10f500022003a0093
:1045f00064004700104078008080fb0020d020003d
:1046000000804000904078000000eb00000f780030
:1046100000c4b30080cf500002003400100020001e
:10462000000f7800100020009e0f100003003a00d9
:104630000000eb0050079800020037000007200040
:10464000500798005e009000100798006400470033
:10465000104090008080fb000007200080806000f8
:104660001e009000808f500003003a0007000700f2
:1046700040079800020037000000eb004007980058
:104680004e0090000080fa00000006000400fa00ce
:104690000000eb00000f7800000037001e007800db
:1046a0004707070026140700311607000080fb00ab
:1046b00010079800200d20009e009000808f500071
:1046c00015003200200d20009e009000808f5000c9
:1046d00004003c001e009000ed0f5000120032005c
:1046e000eeff3700500d20009e009000808f50009c
:1046f0000d003200800d20009e009000808f500041
:1047000001003200e5ff37001e0fe9001e007800af
:10471000630f6000e1ff37001e0fe8009e00780085
:10472000638f6000ddff37009e00780060d12900b4
:1047300000804000104078000080fb000080fa00fc
:10474000000006000600fa00004f78001e80fb0003
:1047500020079800400d2000ae009000808f500090
:1047600008003c00100d2000ae009000808f50002b
:1047700009003d002e009000ed0f500006003200b1
:1047800008003700a0f22f00ae009000008040002b
:10479000e30f500003003e001000200010079800b7
:1047a000020037008000eb00110798001e00900007
:1047b0000080fa00000006000600fa00004f7800b2
:1047c0001e80fb0020079800400d2000ae009000e6
:1047d000808f500073003200400d2000ae0090002a
:1047e000808f50000d003c00200d2000ae00900096
:1047f000808f500090003200200d2000ae0090000d
:10480000808f500073003c00100d2000ae0090001f
:10481000808f500096003200ae003700700d2000ef
:10482000ae009000808f500039003200700d2000e3
:10483000ae009000808f500005003c00600d20000d
:10484000ae009000808f50004a003200a100370077
:10485000800d2000ae009000808f50001e003200be
:10486000900d2000ae009000808f500001003200bb
:1048700098003700306c80004400de006740600024
:104880000040e800674060000080fb0067006000b7
:104890004401dd00316c8000f0f82f0000806000e2
:1048a00002007000306c8800306c8000674060004f
:1048b0000040e800674060000080fb006701600086
:1048c000316c800080ff2f000080600002007000cb
:1048d000306c880082003700306c80004400de00bd
:1048e000674060000040e800674060000080fb0017
:1048f000670060004401dd00316c8000f0f82f009b
:104900000080600002007000306c88007400370086
:10491000306c80004400de00674060000040e8002a
:10492000674060000080fb00670060004401dd001c
:10493000316c8000f0f82f000080600002007000f1
:10494000306c8800306c8000674060000040e900f7
:10495000674060000080fb0067016000316c8000f0
:1049600080ff2f000080600002007000306c880023
:104970005b003700306c8000674060000040e8005a
:10498000674060000080fb0067016000316c8000c0
:1049900080ff2f000080600002007000306c8800f3
:1049a0004f003700306c8000674060000040e90035
:1049b000674060000080fb0067016000316c800090
:1049c00080ff2f000080600002007000306c8800c3
:1049d00043003700306c80004400de006740600018
:1049e0000040e900674060000080fb006700600055
:1049f0004401dd00316c8000f0f82f000080600081
:104a000002007000306c8800306c800067406000ed
:104a10000040e800674060000080fb006701600024
:104a2000316c800080ff2f00008060000200700069
:104a3000306c88002a003700306c80004400de00b3
:104a4000674060000040e900674060000080fb00b4
:104a5000670060004401dd00316c8000f0f82f0039
:104a60000080600002007000306c88001c0037007d
:104a7000306c80004400de00674060000040e900c8
:104a8000674060000080fb00670060004401dd00bb
:104a9000316c8000f0f82f00008060000200700090
:104aa000306c8800306c8000674060000040e90096
:104ab000674060000080fb0067016000316c80008f
:104ac00080ff2f000080600002007000306c8800c2
:104ad000030037000000eb001007980002003700c9
:104ae00011002000110798001e0090000080fa00bd
:104af000000006000800fa00000f78001107980077
:104b0000220798001e4078006740600012c6b3007c
:104b1000824040002e009000014878002e00900056
:104b20000000e800200798001e4078000080fb008d
:104b30004400de0012c3b300824040002e0090000b
:104b4000014878002e0090000000e800200798003f
:104b50001e4090006740600012c6b30082404000d3
:104b60002e009000014878002e0090000000e80020
:104b7000200798001e4090000080fb004400de00eb
:104b800012c3b300824040002e009000014878001c
:104b90002e0090000000e800200798001e00900002
:104ba0004c00de000080fb00300798003e009000c3
:104bb000e50f5000280032003e019000e50f510043
:104bc00004003c003e009000e20f50002f00320035
:104bd0003a0037003e019000e60f5100110032000c
:104be0003e009000e70f5000010032003300370014
:104bf000ae009000d0c3b300804878002e00900033
:104c00000000e80020079800ae00900010c7b30035
:104c1000804878002e0090000000e80020079800ef
:104c200026003700ae009000d0c3b3008048780063
:104c30002e0090000000e80020079800ae009000d1
:104c400020c7b300804878002e0090000000e800e4
:104c50002007980019003700ae009000d0c3b300c1
:104c6000804878002e0090000000e800200798009f
:104c7000ae00900020c6b300804878002e0090005f
:104c80000000e800200798000c003700ae009000fc
:104c9000d0c3b300804878002e0090000000e800e8
:104ca00020079800ae009000e0c6b300804878006e
:104cb0002e0090000000e80020079800ae00900051
:104cc0000040eb00804878000080fa0000000600f9
:104cd0000600fa00000f7800110798001e00780007
:104ce000904078001e00e800104078000000fb00b3
:104cf0004400dd0080c0400010c7b30000c0500079
:104d0000804078001e009000014878001e80e80076
:104d1000904078001e017800630041001040780048
:104d20000000fb004400dd0080c0400010c7b3005d
:104d300000c05000804078001e0090001140980094
:104d40001e009000104090008080fb0020d02000ca
:104d500000804000104078000004e0000a003200ab
:104d60001e009000104090008080fb0020d02000aa
:104d70000080400010407800804078001e009000c5
:104d800021409800030037009e0090000040eb0097
:104d9000a04098009e0090001181fb0011409000ff
:104da0000080fb004800dd000200700080017800f8
:104db000214090000081fb00314090000080fb000a
:104dc0004800dd00020070008000780003007800d9
:104dd000dd0d07006f4060001e019000ef41600094
:104de000b240900000cfb30000c0600003407000ec
:104df000304198009e007800648040009040780028
:104e0000d0c3b30080cf50003c003a001e017800b0
:104e100065004100104078000000fb00200798006a
:104e2000e0062000ae009000808f50002700320086
:104e3000e00620002e019000800f510005003c008c
:104e400020062000ae009000808f50001800320035
:104e500025003700100720002e019000800f510020
:104e60000500320020072000ae009000808f500027
:104e7000080032001c0037001e01900032409000f4
:104e80006f40600001c7b3000140700030419800de
:104e90001e0037001e019000324090006f406000fd
:104ea00001c6b30001407000304198001700370080
:104eb0001e019000324090006f40600001c5b300b9
:104ec0000140700030419800100037001e01900032
:104ed000324090006f40600001c2b300014070009a
:104ee00030419800090037001e009000b04090004b
:104ef000efc0600031409800040037001e009000b1
:104f0000b0409000efc06000314098000080fa008f
:104f1000000006000200fa00004f78000080fa004e
:104f2000000006000400fa00000f78001107980046
:104f3000800020004d1807000080fa0000000600e5
:104f40000000fa00a0d1290035190700dc05070090
:104f50000080fa00000006002a00fa00605798005e
:104f60000000eb00000f9800f000200060079800a0
:104f7000ba033700ee009000e0c529000080400031
:104f8000104078000000fb00700798006e50900001
:104f9000e14f500003003a007e0090000004b00092
:104fa00070079800fe00900020d020000080400094
:104fb00010407800e14f4000a50332007e009000d1
:104fc000010220008080400020d0200000804000ae
:104fd000104078000000fb00670060004017980058
:104fe0004e109000e30f500004023200ce109000eb
:104ff000e38f500007003c004e109000e10f50007e
:105000000e003200ce109000e28f500026033200d6
:105010008f0337004e109000e60f500078013200e9
:10502000ce109000e78f5000ed0032004e1090003f
:10503000e50f5000ea00320085033700f200470018
:105040000040eb0080487800fe00900020d0200057
:1050500000804000104078008040780072004700d7
:1050600001487800f20047000040eb00a0409800a3
:10507000f20047000040eb00b04098006e509000f6
:105080000004e0000500320000ff2f0040079800f8
:1050900000062000300798000400370000012000bf
:1050a0004007980000012000300798007200470078
:1050b00010407800804078004e00900000c0400012
:1050c000804078007200470011409800720047004d
:1050d000104090008080fb0080082000008060006d
:1050e0000000e0003f003a007200470010409000ce
:1050f0008080fb0020d0200000804000104078001d
:105100000004e00037003a006e5090000081fb0080
:105110007200470090007800900190000100780034
:105120008300780066030700800078000e08900076
:1051300001004000000f9800720047001040780006
:105140008080fb0000072000808060003e0090000f
:10515000808f500023003a007200470010409000fa
:10516000804078004e00900000c0400080407800f1
:1051700072004700114098007200470010409000f4
:105180008080fb0080082000008060000000e000bc
:1051900014003a0072004700104090008080fb002d
:1051a00020d0200000804000104078000004e00083
:1051b0000c003a006e5090000081fb007200470026
:1051c0009000780090019000010078008300780042
:1051d0003b030700800078000e08900001004000ab
:1051e000000f98007200470010407800804078005f
:1051f0004e00900000c040000040e8008040780071
:105200007200470011409800720047001040900063
:105210008080fb0080082000008060000000e0002b
:105220002f003a0072004700104090008080fb0081
:1052300020d0200000804000104078000004e000f2
:105240002700320072004700104090008080fb0071
:1052500020d0200000804000904078000000eb004b
:105260003017980000c4b30080cf50000200340013
:1052700011002000311798006e5090000080fb0054
:10528000be109000808f5000150032007200470061
:10529000104090008080fb0020d020000080400063
:1052a000104078008040780072004700214098004c
:1052b0006e5090000081fb00720047009000780063
:1052c000900190000100780083007800fc02070044
:1052d000800078000e08900001004000000f980048
:1052e0007200470010407800804078004e00900027
:1052f00000c040000040e900804078007200470094
:105300001140980072004700104090008080fb0020
:1053100080082000008060000000e000cc023a001d
:1053200072004700104090008080fb0020d02000d9
:1053300000804000104078000004e000c402320009
:1053400072004700104090008080fb0020d02000b9
:1053500000804000904078000000eb00201798008b
:1053600000c4b30080cf50000200340011002000c0
:10537000211798006e5090000080fb00ae10900046
:10538000808f5000b202320072004700104090003f
:105390008080fb0020d0200000804000104078007a
:1053a0008040780072004700214098006e509000c5
:1053b0000081fb007200470090007800900190008f
:1053c0000100780083007800bd02070080007800ab
:1053d0000e08900001004000000f98009c0237006a
:1053e0000000eb005007980078003700fe009000a6
:1053f00020d020000080400010417800de009000a6
:1054000020bc29000080400010407800004041008e
:10541000804078007200470011409800f200470079
:105420000040eb00a04098005a003700f20047000f
:1054300000c0eb0080487800f20047000040eb001d
:10544000b040980072004700104090008080fb0040
:1054500020d0200000804000104078000004e000d0
:105460002700320072004700104090008080fb004f
:1054700020d0200000804000904078000000eb0029
:105480001017980000c4b30080cf50000200340011
:1054900011002000111798006e5090000080fb0052
:1054a0009e109000808f500011003200fe0090008e
:1054b00020d020000080400010407800804078001c
:1054c00072004700014878007200470010409000c9
:1054d0008080fb0020d02000008040001040780039
:1054e0008040780072004700214098000b00370090
:1054f000f200470000c0eb00a04098000700370012
:10550000fe00900020d02000008040001040780075
:105510008040780072004700014878007200470020
:1055200010407800e14f40000f0032006e509000b4
:105530000081fb007200470090007800900190000d
:105540000100780083007800ba0207000000e00044
:105550000500320072004700460207000e08900066
:105560000000e800000f9800720047001040900013
:1055700000417800de00900020bc2900008040003f
:1055800010407800004041008040780072004700e1
:105590001140980072004700104090008080fb008e
:1055a00080082000008060000000e00004003a0055
:1055b00072004700204090000004e0009bff320092
:1055c0005e0090000000e800500798005e00900028
:1055d000e30f500085ff36007e009000010220009e
:1055e0008080400020d020000080400010407800e3
:1055f0000000fb0067006000e50f5000140232005d
:105600000000eb005007980078003700fe00900083
:1056100020d020000080400010417800de00900083
:10562000e0bb2900008040001040780000404100ad
:10563000804078007200470011409800f200470057
:105640000040eb00a04098005a003700f2004700ed
:1056500000c0eb0080487800f20047000040eb00fb
:10566000b040980072004700104090008080fb001e
:1056700020d0200000804000104078000004e000ae
:105680002700320072004700104090008080fb002d
:1056900020d0200000804000904078000000eb0007
:1056a0000017980000c4b30080cf500002003400ff
:1056b00011002000011798006e5090000080fb0040
:1056c0008e109000808f500011003200fe0090007c
:1056d00020d02000008040001040780080407800fa
:1056e00072004700014878007200470010409000a7
:1056f0008080fb0020d02000008040001040780017
:105700008040780072004700214098000b0037006d
:10571000f200470000c0eb00a040980007003700ef
:10572000fe00900020d02000008040001040780053
:1057300080407800720047000148780072004700fe
:1057400010407800e14f40000f0032006e50900092
:105750000081fb00720047009000780090019000eb
:105760000100780083007800320207000000e000aa
:105770000500320072004700be0107000e089000cd
:105780000000e800000f98007200470010409000f1
:1057900000417800de009000e0bb2900008040005e
:1057a00010407800004041008040780072004700bf
:1057b0001140980072004700104090008080fb006c
:1057c00080082000008060000000e00004003a0033
:1057d00072004700204090000004e0009bff320070
:1057e0005e0090000000e800500798005e00900006
:1057f000e30f500085ff3600950137000000eb00f5
:105800005007980064003700fe00900020d0200070
:105810000080400010417800de00900060bb29004d
:105820000080400010407800004041008040780037
:105830007200470011409800f200470000c0eb00e2
:1058400080487800f20047000040eb00a04098003c
:10585000f20047000040eb00b040980072004700a3
:10586000104090008080fb008008200000806000d5
:105870000000e00045003a00720047001040900030
:105880008080fb0020d02000008040001040780085
:105890000004e00023003200720047001040900036
:1058a0008080fb0020d020000080400090407800e5
:1058b0000000eb00700f980000c4b30080cf5000d0
:1058c0000200340011002000710f98006e5090000b
:1058d0000080fb00fe089000808f5000180032000e
:1058e000fe00900020d02000008040001040780092
:1058f000804078007200470001487800720047003d
:10590000104090008080fb0020d0200000804000ec
:1059100010407800804078007200470021409800d5
:1059200007003700fe00900020d0200000804000db
:1059300010407800804078007200470001487800ed
:105940007200470010407800e14f40000f00320025
:105950006e5090000081fb007200470090007800bc
:10596000900190000100780083007800b1010700e9
:105970000000e00005003200720047003d01070012
:105980000e0890000000e800000f98005e009000f4
:105990000000e800500798005e009000e70f5000fc
:1059a00099ff360084cdbf006f4060000004e00026
:1059b000270132006e5090000004e0000700320022
:1059c0004007200020079800800020001007980062
:1059d00020002000000f7800060037004000200063
:1059e00020079800400020001007980010002000b9
:1059f000000f78000040eb00405f98006e50900070
:105a00000004e00002003a0011c0b300415f9800ba
:105a10002e009000ce589000660b07000000e000ba
