:020000040000fa
:080000000002040000000000f2
:020000040000fa
:100400008f852100007f240000018800000000008b
:100410000c000700a08b2000010020001100070045
:10042000000020000000e000020032000000020096
:1004300000000000de060200000000000040da00bc
:100440000000fe004440a900800320000000e000fe
:100450000300320000002000a00188004440a800f2
:100460000000060091018800800078000000eb0089
:1004700015003700e280400032a0b4009101ba00bc
:10048000e280400032a0b4009102ba00e280400055
:1004900032a0b4000002eb00472bde00f507b200eb
:1004a000602ce10004003a000059eb008301e900f0
:1004b000fdff3e00040037006128e100010032002a
:1004c0000082eb00040007001101ba000200e00006
:1004d000e8ff3a00000006003159ba008301e90044
:1004e0000c0032002159ba008301e90008003200f3
:1004f0000400e00003003a00e280400032a0b400b3
:10050000f5ff370011d9ba008301e900faff3a007c
:100510008100e800e180400032a0b4000000060045
:020000040000fa
:0200000401f009
:04000000ffff0000fe
:020000040000fa
:0200000401f009
:04000400ffff0000fa
:020000040000fa
:0200000401f009
:04000800ffff0000f6
:020000040000fa
:0200000401f009
:04000c00f8ff0000f9
:020000040000fa
:0200000401f009
:040010005eff00008f
:020000040000fa
:0200000401f009
:040014007fff00006a
:020000040000fa
:0200000401f009
:04001800ffff0000e6
:020000040000fa
:0200000401f009
:04001c00dfff000002
:020000040000fa
:10000800ca080000ca080000ca080000ca080000a0
:10001800ca080000ca080000ca080000ca08000090
:10002800ca080000ca080000ca080000ca08000080
:10003800ca080000ca080000ca080000ca08000070
:10004800ca080000ca080000ca080000ca08000060
:10005800ca080000ca080000ca080000ca08000050
:10006800ca080000ca080000ca080000ca08000040
:10007800ca080000ca080000ca080000ca08000030
:10008800ca080000ca080000ca080000ca08000020
:10009800ca080000ca080000e8060000ca080000f4
:1000a800ca080000ca080000ca080000ca08000000
:1000b800ca080000ca080000ca080000ca080000f0
:1000c800ca080000ca080000ca080000ca080000e0
:1000d800ca080000ca080000ca080000ca080000d0
:1000e800ca080000ca080000ca080000ca080000c0
:1000f800ca080000ca080000ca080000ca080000b0
:10010800ca080000ca080000ca080000ca0800009f
:10011800ca080000ca080000ca080000ca0800008f
:10012800ca080000ca080000ca080000ca0800007f
:10013800ca080000ca080000ca080000ca0800006f
:10014800ca080000ca080000ca080000ca0800005f
:10015800ca080000ca080000ca080000ca0800004f
:10016800ca080000ca080000ca080000ca0800003f
:10017800ca080000ca080000ca080000ca0800002f
:10018800ca080000ca080000ca080000ca0800001f
:10019800ca080000ca080000ca080000ca0800000f
:1001a800ca080000ca080000ca080000ca080000ff
:1001b800ca080000ca080000ca080000ca080000ef
:1001c800ca080000ca080000ca080000ca080000df
:1001d800ca080000ca080000ca080000ca080000cf
:1001e800ca080000ca080000ca080000ca080000bf
:0801f800ca080000ca0800005b
:020000040000fa
:10020800ca080000ca080000ca080000ca0800009e
:10021800ca080000ca080000ca080000ca0800008e
:10022800ca080000ca080000ca080000ca0800007e
:10023800ca080000ca080000ca080000ca0800006e
:10024800ca080000ca080000ca080000ca0800005e
:10025800ca080000ca080000ca080000ca0800004e
:10026800ca080000ca080000ca080000ca0800003e
:10027800ca080000ca080000ca080000ca0800002e
:10028800ca080000ca080000ca080000ca0800001e
:10029800ca080000ca080000e8060000ca080000f2
:1002a800ca080000ca080000ca080000ca080000fe
:1002b800ca080000ca080000ca080000ca080000ee
:1002c800ca080000ca080000ca080000ca080000de
:1002d800ca080000ca080000ca080000ca080000ce
:1002e800ca080000ca080000ca080000ca080000be
:1002f800ca080000ca080000ca080000ca080000ae
:10030800ca080000ca080000ca080000ca0800009d
:10031800ca080000ca080000ca080000ca0800008d
:10032800ca080000ca080000ca080000ca0800007d
:10033800ca080000ca080000ca080000ca0800006d
:10034800ca080000ca080000ca080000ca0800005d
:10035800ca080000ca080000ca080000ca0800004d
:10036800ca080000ca080000ca080000ca0800003d
:10037800ca080000ca080000ca080000ca0800002d
:10038800ca080000ca080000ca080000ca0800001d
:10039800ca080000ca080000ca080000ca0800000d
:1003a800ca080000ca080000ca080000ca080000fd
:1003b800ca080000ca080000ca080000ca080000ed
:1003c800ca080000ca080000ca080000ca080000dd
:1003d800ca080000ca080000ca080000ca080000cd
:1003e800ca080000ca080000ca080000ca080000bd
:0803f800ca080000ca08000059
:020000040000fa
:100520000d0a00002077000061760000654200009f
:10053000757200006e650000720d00000a53000025
:100540005354000032350000205300006572000053
:10055000696100006c200000466c000061730000bf
:100560006820000042750000726e00006572000095
:100570000d0a00004a7500006e20000020360000c1
:100580002032000030310000310d00000a00000070
:020000040000fa
:100590000000fa006382a9006362a9006342a90017
:1005a0006322a8006302a80062c2a90062a2a80098
:1005b00062e2a900212620009140780030ceb300ed
:1005c00000c060008041b30062e2b7002126200035
:1005d00091407800c0cfb30000c060000014a000bc
:1005e00062e2b70065e2a900c922a900cd22a800f5
:1005f000816d20009140780000ceb30000c0600003
:10060000a040b300d8e6b700c16a2000914078004e
:1006100000ceb30000c060006041b300ace6b7009c
:10062000716d20009140780000ceb30000c06000e2
:10063000b040b300d7e6b7000000eb00001388001d
:1006400061a2a9008820a90061e2a8000080fa0048
:10065000000006000200fa00000f78001e0078007b
:100660004013880060c2bf00614060000004e000e9
:10067000fcff320040138000000f78001e0078005d
:100680000080fa00000006000200fa00cd22a90056
:1006900050002000efff0700f00f2000edff0700e3
:1006a000000f7800cd22a8001e0078000080fa001c
:1006b000000006000000fa00cd22a9006000200022
:1006c000e4ff0700cd22a800cd22a90010002000e1
:1006d000e0ff07000000eb00deff0700cd22a800ce
:1006e0000080fa00000006000000fa00f1ff070099
:1006f000cd22a90060002000d6ff0700cd22a8006f
:10070000cd22a90000062000d2ff0700cd22a800bc
:10071000ddff0700610060000004e000fcff3a001c
:100720000080fa00000006000e00fa001007980092
:1007300021079800cd22a90030002000c5ff070046
:100740001e009000ae00900002002000f30f200079
:1007500000027800810278000200780083007800af
:1007600000016200018062006102b8003407980055
:10077000450798003e009000ce009000c000dd00cc
:100780000000200030079800410798003e009000cc
:10079000ce0090006112b800340798004507980019
:1007a0003e019000ce019000020070008380700036
:1007b0004088de00cf80de00a6ff07001e0090000c
:1007c000ae00900002f02f0003002000000278002d
:1007d0008102780002007800830078000001620046
:1007e000018062006102b800540798006507980014
:1007f0005e009000ee009000c000dd0000002000d0
:1008000050079800610798005e009000ee0090008d
:100810006112b80054079800650798005e019000c7
:10082000ee0190000200700083807000c809dd00b6
:100830004800de0000807100c888de0085ff0700e8
:100840009e009000f00f20000080600081ff0700f4
:10085000f00f20007fff0700000f7800cd22a800d6
:100860001e0078000080fa00000006001200fa0066
:10087000889fbe00000f780011079800220798009b
:1008800033079800cd22a9003000200071ff070037
:100890002e009000be00900002002000f30f200008
:1008a000000278008102780002007800830078005e
:1008b00000016200018062006102b80054079800e4
:1008c000650798005e009000ee009000c000dd001b
:1008d0000000200050079800610798005e0090001b
:1008e000ee0090006112b800540798006507980068
:1008f0005e019000ee0190000200700083807000a5
:100900004088de00cf80de0052ff07002e009000fe
:10091000be00900002f02f000300200000027800cb
:1009200081027800020078008300780000016200f4
:10093000018062006102b80074079800050f9800fa
:100940007e0090008e089000c000dd0000002000b6
:1009500070079800010f98007e0090008e089000ac
:100960006112b80074079800050f98007e0190008e
:100970008e0990000200700083807000c809dd00bd
:100980004800de0000807100c888de0031ff0700eb
:10099000ae009000f00f2000008060002dff0700e7
:1009a0000d003700f00f20002aff070080007800bc
:1009b0001e007800010878001e0478009804780072
:1009c000f00f200023ff07004800dd0000804400f6
:1009d000000c78001e8fe8000042eb00044f9800e6
:1009e0001e0090000000e0000200340015c0b300bb
:1009f000054f98001e0090000000e90010079800c5
:100a00000e4890000004e000e6ff3a00cd22a80066
:100a10004f04be000080fa00000006000e00fa003d
:100a2000004f78001207980023079800cd22a900f4
:100a30006000200007ff0700cd22a800cd22a900fa
:100a40002000200003ff07001e009000ae00900071
:100a500002002000f30f20000002780081027800dd
:100a600002007800830078000001620001806200cb
:100a70006102b80034079800450798003e009000d6
:100a8000ce009000c000dd0000002000300798007c
:100a9000410798003e009000ce0090006112b8001f
:100aa00034079800450798003e019000ce01900061
:100ab00002007000838070004088de00cf80de007e
:100ac000e4fe07001e009000ae00900002f02f0030
:100ad0000300200000027800810278000200780004
:100ae0008300780000016200018062006102b800aa
:100af00054079800650798005e009000ee00900093
:100b0000c000dd0000002000500798006107980039
:100b10005e009000ee0090006112b800540798004b
:100b2000650798005e019000ee01900002007000e1
:100b300083807000c809dd004800de00008071007d
:100b4000c888de00c3fe07009e009000f00f200062
:100b500000806000bffe07001e00fb00bdfe070016
:100b6000cd22a800c8fe0700610060000004e0007c
:100b7000fcff3a00cd22a90040002000b5fe07008e
:100b8000cd22a8000080fa00000006001200fa0042
:100b9000000f78001107980022079800330798008b
:100ba000cd22a90060002000aafe0700cd22a800e7
:100bb000cd22a900d00a2000a6fe07002e0090003a
:100bc000be00900002002000f30f20000002780019
:100bd0008102780002007800830078000001620042
:100be000018062006102b800540798006507980010
:100bf0005e009000ee009000c000dd0000002000cc
:100c000050079800610798005e009000ee00900089
:100c10006112b80054079800650798005e019000c3
:100c2000ee01900002007000838070004088de00ba
:100c3000cf80de0087fe07002e009000be009000ef
:100c400002f02f00030020000002780081027800eb
:100c500002007800830078000001620001806200d9
:100c60006102b80074079800050f98007e0090009c
:100c70008e089000c000dd00000020007007980082
:100c8000010f98007e0090008e0890006112b8005d
:100c900074079800050f98007e0190008e0990005f
:100ca0000200700083807000c809dd004800de008b
:100cb00000807100c888de0066fe0700ae0090006c
:100cc000f00f20000080600062fe07001e00780028
:100cd00090007800f00f2000008060005dfe0700ab
:100ce0001e00780010007800c880de00f00f2000a1
:100cf000008060001e8fe80056fe0700cd22a8008d
:100d00001e0090000000e900100798005efe07003a
:100d1000610060000004e000fcff3a0014003700ae
:100d2000cd22a900d00a20004afe07001e0078004c
:100d300090007800f00f20000080600045fe070062
:100d40001e00780010007800c880de00f00f200040
:100d5000008060001e8fe8003efe0700cd22a80044
:100d600049fe0700610060000004e000fcff3a005b
:100d70000042eb00044f98001e0090000000e000cd
:100d80000200340015c0b300054f98001e0090000b
:100d90000000e900100798000e4890000004e000f1
:100da000dfff3a00cd22a9004000200029fe070005
:100db000cd22a8000080fa00000006000000fa0022
:100dc0007700070000292800d8000700ffff370040
:100dd0003600f800809fbe00829fbe00849fbe0048
:100de000869fbe008800fa0087c0a900b01180006d
:100df00030079800b0c28000e10f500001003200bf
:100e000024003700a1c280003e0090008048780096
:100e10000100e800a0c28800a1c280004085210036
:100e2000808f50005700390040852000a0c2880004
:100e30008242800093428000408520000180200093
:100e400052ff070082428000934280000000210090
:100e5000010020000200400083804800804288009a
:100e600091428800400720009d00070082428000d8
:100e7000934280000000200001022000800f5100fa
:100e8000818f59003f003a000000eb00b0c288009b
:100e90003c003700be00900070072000808f50009b
:100ea0000a003a0010fe070010002000b0c28800bf
:100eb0006000b80080428800914288004085200090
:100ec000a0c288007007200085000700be009000c7
:100ed00020072000808f50002a003a006000b800f0
:100ee000008fbe0022003700680047001e01be00d0
:100ef000010420005dfe07000000eb0020079800c1
:100f0000130037002e009000e8004700000040006a
:100f1000e0807800f00f2000008060007000070083
:100f20002e009000e800470000004000608078003c
:100f30008000780000f02f00008060004800de0094
:100f4000670007002e0090000000e80020079800ce
:100f5000ae009000f0032000808f5000e9ff3400c5
:100f600000082000010020001e0f40005e9748008e
:100f7000f0ff2f00f1012000be0f1000ae8f18000f
:100f8000d9ff34000080fa004f03be004f02be00bc
:100f90004f01be004f00be003600f90000400600c1
:100fa0000000fa000a000700040007002e000700f6
:100fb00077fd07000080fa00000006000000fa003c
:100fc0000080eb00601988000080fa000000060035
:100fd0000000fa00e0012000303a880044c7bf005a
:100fe000f043b20044e7b70041742000914078001c
:100ff00000ceb30000c060000014a00044e7b700ba
:101000003200200081072000a00920003374200056
:1010100081497800804978008249780012002000d8
:1010200061042000700520002374200081497800ad
:10103000804978008249780043c7bf0002c7b300e7
:101040008240600000c3b30080cf5000faff3a0036
:1010500042c7bf000042b2000004e000fcff3200c3
:101060000080fa00000006000200fa0097c0a90004
:1010700060022000c01188008000280080118800d4
:101080000040200090118800616a200091407800a3
:1010900000ceb30000c060006040b300a6e6b70019
:1010a000516c20009140780000ceb30000c0600079
:1010b0005040b300c5e6b70002003700b011800011
:1010c000004f780032c2bf00614060000004e000c1
:1010d000faff3a0097c0a8000080fa00000006005e
:1010e0000200fa00000f780033c2bf0062406000c7
:1010f0000004e000fcff3a001e007800a011880008
:101100000080fa00000006000000fa0032c2bf00b2
:10111000614060000004e000fcff3200b01180007c
:101120000000fb000080fa00000006000200fa0048
:10113000000f7800d0002000e9ff0700a000200089
:10114000e7ff0700050037001e0078001040780018
:101150000000fb001e0fe800e1ff07001e00780002
:10116000104078000004e000f7ff3a000080fa0029
:041170000000060075
:020000040000fa
:1011740056180000020000000200000000000000f9
:1011840050080000061000000000000000000000ed
:020000040000fa
:041194000000fe0059
:00000001FF
